:020000040000fa
:080000000001040000000000f3
:020000040000fa
:100200000f8020000eff20000e018800000000007b
:100210000c000700e034200001002000110007005e
:10022000000020000000e000020032000000020098
:1002300000000000ca020200000000000040da00d6
:100240000000fe004440a900000020000000e00083
:100250000300320000002000a00188004440a800f4
:100260000000060091018800800078000000eb008b
:1002700015003700e280400032a0b4009101ba00be
:10028000e280400032a0b4009102ba00e280400057
:1002900032a0b4000002eb00472bde00f507b200ed
:1002a000602ce10004003a000059eb008301e900f2
:1002b000fdff3e00040037006128e100010032002c
:1002c0000082eb00040007001101ba000200e00008
:1002d000e8ff3a00000006003159ba008301e90046
:1002e0000c0032002159ba008301e90008003200f5
:1002f0000400e00003003a00e280400032a0b400b5
:10030000f5ff370011d9ba008301e900faff3a007e
:100310008100e800e180400032a0b4000000060047
:100320000040da000000fe008520a9008540a900f9
:10033000e7416000c419dd00810920009140780088
:10034000f2c8b30082c0600083c070008000fd006e
:1003500098e0b7008000fd00800178000307b2003c
:10036000c419de00910920009140780082cfb300cb
:1003700082c0600083c070008000fd0099e0b7007b
:100380008000fd00680160004311de000241410071
:10039000d1082000914078000114a10082c07000b3
:1003a0008000fd008de0b7008000fd000008b20075
:1003b0004700de004200dd00d108200091407800b7
:1003c0000124a10080c07000010078008de0b7001a
:1003d00000000600a21088006010880071108800dc
:0403e0000000060013
:020000040000fa
:0200000401f009
:0400000000c100003b
:020000040000fa
:0200000401f009
:040004003f000000b9
:020000040000fa
:1000080090010000900100009001000090010000a4
:100018009001000090010000900100009001000094
:100028009001000090010000900100009001000084
:100038009001000090010000900100009001000074
:100048009001000090010000900100009001000064
:100058009001000090010000900100009001000054
:100068009001000090010000900100009001000044
:100078009001000090010000900100009001000034
:100088009001000090010000900100009001000024
:100098009001000090010000900100009001000014
:1000a8009001000090010000900100009001000004
:1000b80090010000900100009001000090010000f4
:1000c80090010000900100009001000090010000e4
:1000d80090010000900100009001000090010000d4
:1000e80090010000900100009001000090010000c4
:0800f8009001000090010000de
:020000040000fa
:1001080090010000900100009001000090010000a3
:100118009001000090010000900100009001000093
:100128009001000090010000900100009001000083
:100138009001000090010000900100009001000073
:100148009001000090010000900100009001000063
:100158009001000090010000900100009001000053
:100168009001000090010000900100009001000043
:100178009001000090010000900100009001000033
:100188009001000090010000900100009001000023
:100198009001000090010000900100009001000013
:1001a8009001000090010000900100009001000003
:1001b80090010000900100009001000090010000f3
:1001c80090010000900100009001000090010000e3
:1001d80090010000900100009001000090010000d3
:1001e80090010000900100009001000090010000c3
:0801f8009001000090010000dd
:020000040000fa
:1003e4000000fa0070f72f00ceff07002200200063
:1003f400f17d2f00800b2a00f5ff07000080fa0032
:10040400000006000600fa00200798002e00900065
:100414006103b80086007800307320000009b8003a
:100424006030b900030278000002420030732000fb
:1004340000b8b9000002420084017800028fbe00b7
:100444001e00be00860007000080fa0000000600bf
:100454000400fa0010079800a1e2a9008560a90031
:100464009109200091407800f0c8b30000c06000fa
:1004740099e0b7008d60a900a682a9001e00900033
:100484006f4060006f416000612a20009140780055
:1004940000cfb30000c0600002407000a6e2b700c5
:1004a4000000eb005015880090042e0020158800f1
:1004b40000bc20001015880090c12f000015880092
:1004c400c01220000100200065000700a022a8003f
:1004d400c01220000100200061000700a022a90032
:1004e400a0c2bf00614060000004e000fcff3200d5
:1004f40000148000000f7800a1e2a9001e0078001b
:100504000080fa00000006000000fa00ffff370038
:100514000000fa000000eb000008880004c1a800f5
:100524000421a90005e1a8000080fa0000000600eb
:100534000000fa0005e1a9000080fa0000000600ae
:100544000000fa00000880000080fa0000000600a5
:100554000000fa000000eb003008880010c1a80079
:100564001021a90011e1a8000080fa000000060093
:100574000000fa0011e1a9000080fa000000060062
:100584000000fa00300880000080fa000000060035
:100594000000fa0092ff0700803e200099ff070048
:1005a40004000700d8ff07000000eb000080fa00f9
:1005b400000006000000fa00c602a900a802a80074
:1005c4000080fa00000006000000fa00000021008c
:1005d400100c880000002100000c88004118200045
:1005e4009140780080cfb30000c0600084e1b70080
:1005f40040062000100c880040062000000c8800f3
:100604008461a90040062000100c880041182000d5
:100614009140780080cfb30000c060006040b30018
:1006240084e1b70011e1a9001021a90010c1a900bb
:100634000111200091407800f0ccb30000c06000ac
:1006440010e1b7000000eb0030088800401f2000d4
:100654006008880011e1a8000080fa00000006008c
:020000040000fa
:10066400f03fb1000180b10006003500ee0309003f
:1006740000000000403fb1000180b100fbff3d00dd
:100684001000b000203fb0000200350000800900d7
:08069400000000000000060058
:020000040000fa
:04069c00000000005a
:00000001FF
